:1000000072C00000A0C000009EC00000FEC0000042
:1000100023C10000ACC00000D1C0000094C00000AB
:1000200092C00000F3C400008EC000008CC000002D
:100030008AC0000088C0000086C00000B0C6000072
:1000400082C0000080C000007EC000007CC00000B4
:100050007AC0000078C0000076C0000024C1000013
:1000600072C00000CEC600006EC000006CC0000070
:100070006AC0000068C0000066C0000064C00000E4
:1000800062C0000060C000005EC000005CC00000F4
:10009000D2C6000058C0000056C0000054C0000086
:1000A00052C0000050C000004EC000004CC0000014
:1000B0004AC0000048C0000046C0000044C0000024
:1000C00042C0000040C000003EC00000C4C60000A6
:1000D0003AC0000038C00000F2C6000034C0000082
:1000E00032C000002D0511241FBECFEFD1E2DEBFCC
:1000F000CDBF00E00CBF12E0A0E0B2E0E4E1F2E12D
:1001000000E00BBF02C007900D92A230B107D9F7F3
:1001100022E0A2E0B2E001C01D92AB39B207E1F7E4
:1001200010E0C3E7D0E000E006C021970109802F6E
:10013000FE010E940009C237D10780E00807A9F735
:10014000FBD30C9408095CCF78948FEF80936900FF
:100150008FE080936A008DB38C638DBB0895789493
:1001600085B5856085BD81E080936E0008951F92FE
:100170000F920FB60F9211240BB60F928F939F938D
:10018000EF93FF93049B08C0EAE1F2E08081918144
:1001900001969183808307C0EAE1F2E0808191813A
:1001A000019791838083FF91EF919F918F910F90A1
:1001B0000BBE0F900FBE0F901F9018951F920F92BD
:1001C0000FB60F9211240BB60F928F939F93EF935C
:1001D000FF93019B08C0E2E1F2E0808191810196EA
:1001E0009183808307C0E2E1F2E0808191810197F1
:1001F00091838083FF91EF919F918F910F900BBE20
:100200000F900FBE0F901F9018951F920F920FB670
:100210000F9211240BB60F928F939F93EF93FF933E
:10022000029B08C0EAE0F2E080819181019691830F
:10023000808307C0EAE0F2E0808191810197918399
:100240008083FF91EF919F918F910F900BBE0F9044
:100250000FBE0F901F9018951F920F920FB60F921E
:1002600011240BB60F928F939F93EF93FF93039BF1
:1002700008C0E2E0F2E08081918101969183808361
:1002800007C0E2E0F2E08081918101979183808351
:10029000FF91EF919F918F910F900BBE0F900FBE2A
:1002A0000F901F9018951F920F920FB60F92112466
:1002B0000BB60F928F939F93EF93FF9381E0809300
:1002C0008E02EAE1F2E08081918193838283118240
:1002D0001082E2E1F2E08081918193838283118236
:1002E0001082EAE0F2E0808191819383828311821F
:1002F0001082E2E0F2E08081918193838283118217
:100300001082FF91EF919F918F910F900BBE0F90F4
:100310000FBE0F901F9018954F925F926F927F9231
:100320008F929F92AF92BF92CF92DF92EF92FF9205
:100330000F931F93CF93DF9320911C0230911D02E6
:10034000C4E7D2E03D872C87082F880F110B021BD2
:10035000130B198B088BB801012E000C880B990B1D
:1003600060D64B015C012C813D814E815F81E5D6D9
:100370002A893B894C895D89BDD56B017C016A8BDB
:100380007B8B8C8B9D8B8E899F89B801681B790B29
:10039000072E000C880B990B44D6288539854A8591
:1003A0005B85CBD62B013C01288139814A815B8159
:1003B000C501B401C2D6A70196019CD59B01AC0131
:1003C000C301B20197D5FAD57F876E871F8B0E8B3D
:1003D000288D398D620F731FCB01772324F4882772
:1003E0009927861B970B8A3F91052CF470938D02F9
:1003F00060938C0210C0161617063CF489EF90E04B
:1004000090938D0280938C0206C087E09FEF9093BB
:100410008D0280938C0260918C0270918D0285E236
:1004200092E081D4DF91CF911F910F91FF90EF90D7
:10043000DF90CF90BF90AF909F908F907F906F9004
:100440005F904F9008954F925F926F927F928F923C
:100450009F92AF92BF92CF92DF92EF92FF920F9353
:100460001F93CF93DF932091140230911502CAE5B8
:10047000D2E03D872C87082F880F110B021B130B2E
:10048000198B088BB801012E000C880B990BC9D56C
:100490004B015C012C813D814E815F814ED62A89C2
:1004A0003B894C895D8926D56B017C016A8B7B8BEE
:1004B0008C8B9D8B8E899F89B801681B790B072EC9
:1004C000000C880B990BADD5288539854A855B854D
:1004D00034D62B013C01288139814A815B81C501D9
:1004E000B4012BD6A701960105D59B01AC01C30130
:1004F000B20100D563D57F876E871F8B0E8B288D49
:10050000398D620F731FCB01772324F48827992735
:10051000861B970B8A3F91052CF4709373026093AE
:10052000720210C0161617063CF489EF90E0909303
:1005300073028093720206C087E09FEF909373026C
:1005400080937202609172027091730284E292E071
:10055000EAD3DF91CF911F910F91FF90EF90DF9041
:10056000CF90BF90AF909F908F907F906F905F9053
:100570004F9008954F925F926F927F928F929F92C9
:10058000AF92BF92CF92DF92EF92FF920F931F93A1
:10059000CF93DF9320910C0230910D02C0E4D2E0A2
:1005A0003D872C87082F880F110B021B130B198B0B
:1005B000088BB801012E000C880B990B32D54B012A
:1005C0005C012C813D814E815F81B7D52A893B89B1
:1005D0004C895D898FD46B017C016A8B7B8B8C8B02
:1005E0009D8B8E899F89B801681B790B072E000CA3
:1005F000880B990B16D5288539854A855B859DD54D
:100600002B013C01288139814A815B81C501B401FC
:1006100094D5A70196016ED49B01AC01C301B20130
:1006200069D4CCD47F876E871F8B0E8B288D398D34
:10063000620F731FCB01772324F488279927861B29
:10064000970B8A3F91052CF47093590260935802DE
:1006500010C0161617063CF489EF90E090935902EB
:100660008093580206C087E09FEF909359028093D1
:100670005802609158027091590283E292E053D37C
:10068000DF91CF911F910F91FF90EF90DF90CF906E
:10069000BF90AF909F908F907F906F905F904F90A2
:1006A00008954F925F926F927F928F929F92AF9236
:1006B000BF92CF92DF92EF92FF920F931F93CF934F
:1006C000DF932091040230910502C6E2D2E03D871B
:1006D0002C87082F880F110B021B130B198B088B0B
:1006E000B801012E000C880B990B9BD44B015C01C7
:1006F0002C813D814E815F8120D52A893B894C899F
:100700005D89F8D36B017C016A8B7B8B8C8B9D8B15
:100710008E899F89B801681B790B072E000C880B06
:10072000990B7FD4288539854A855B8506D52B01B1
:100730003C01288139814A815B81C501B401FDD426
:10074000A7019601D7D39B01AC01C301B201D2D35B
:1007500035D47F876E871F8B0E8B288D398D620F66
:10076000731FCB01772324F488279927861B970BC7
:100770008A3F91052CF470933F0260933E0210C0B3
:10078000161617063CF489EF90E090933F02809391
:100790003E0206C087E09FEF90933F0280933E02A7
:1007A00060913E0270913F0282E292E0BCD2DF9102
:1007B000CF911F910F91FF90EF90DF90CF90BF905E
:1007C000AF909F908F907F906F905F904F90089523
:1007D000CF93DF9380910002882391F080918E0265
:1007E000882309F44FC0C3E9D2E0888195DD89816F
:1007F0002ADE8A81BFDE8B8154DF10928E0242C0D6
:10080000C3E9D2E06881062E000C770B880B990BA8
:1008100008D42DEC3CEC4CEA50E48FD4CFD385E2E5
:1008200092E081D26981062E000C770B880B990B20
:10083000F8D32DEC3CEC4CEA50E47FD4BFD384E2F7
:1008400092E071D26A81062E000C770B880B990B0F
:10085000E8D32DEC3CEC4CEA50E46FD4AFD383E208
:1008600092E061D26B81062E000C770B880B990BFE
:10087000D8D32DEC3CEC4CEA50E45FD49FD382E219
:1008800092E051D2DF91CF910895CF93DF9385E22B
:1008900092E008D284E292E005D283E292E002D2B2
:1008A00082E292E0FFD186E292E0FC01178A168A8A
:1008B000C0E4D2E01F8A1E8AAAE5B2E057961C92D5
:1008C0001E92569724E732E0F901178A168AFC0136
:1008D000128A138A148A158A1A8A1B8A1C8A1D8A0C
:1008E00052961D921D921D921C925597F901128AE3
:1008F000138A148A158AFC01178616861F861E869F
:100900001F961C921E921E97F90117861686FC01EF
:10091000118E108E198E188E59961C921E92589711
:10092000F901118E108EE3E9F2E010821182128239
:100930001382DF91CF910895E8E6F0E08081816035
:100940008083EBE6F0E080818061808346D27894FA
:10095000E4E7F2E000E010E020EA3FE300831183E7
:10096000228333834FE652E163E87BE3448355837C
:10097000668377830F2EC12CD12CF0EDEF2EF0E49F
:10098000FF2EF02DC086D186E286F386EAE5F2E0FE
:1009900086E696E6A6EABFE380839183A283B383CB
:1009A00086EA9BE9A4E4BBE384839583A683B783AB
:1009B000C086D186E286F386E0E4F2E0008311830C
:1009C00022833383448355836683778340E050E0FA
:1009D00060EC70E44087518762877387E6E2F2E05B
:1009E0004DEC5CEC6CE87FE340835183628373835E
:1009F00084839583A683B78380E090E0A0EBB0E486
:100A000080879187A287B387E3DEFECF1F920F9284
:100A10000FB60F9211240BB60F922F933F934F9363
:100A20005F936F937F938F939F93AF93BF93EF9356
:100A3000FF932BDFFF91EF91BF91AF919F918F912A
:100A40007F916F915F914F913F912F910F900BBECE
:100A50000F900FBE0F901F90189581E08093250294
:100A600085E292E03BD082E08093240284E292E02F
:100A700035D083E08093230283E292E02FD084E09C
:100A80008093220282E292E029D010921B021092FF
:100A90001A028AE192E058DB8AE192E060DB109270
:100AA00013021092120282E192E04EDB82E192E0A8
:100AB00056DB10920B0210920A028AE092E044DBAD
:100AC0008AE092E04CDB109203021092020282E074
:100AD00092E03ADB82E092E042CB0895FC01808113
:100AE0008130F1F4E7E0F1E08081806480838081EF
:100AF00080688083EAE0F1E0808180628083E0E2C8
:100B0000F1E080818A608083E1E2F1E080818A61A6
:100B1000808389EF90E090932701809326010895C8
:100B20008230F1F4E7E0F1E08081886080838081A9
:100B300084608083EAE0F1E0808188608083E0E285
:100B4000F1E0808182688083E1E2F1E080818A6166
:100B5000808389EF90E09093270180932601089588
:100B60008330F1F4E7E0F1E080818061808380816F
:100B700080628083EAE0F1E0808180618083E0E24E
:100B8000F1E0808182628083E1E2F1E080818A612C
:100B9000808389EF90E09093270180932601089548
:100BA0008430E9F4E7E0F1E0808182608083808135
:100BB00081608083E1E0F1E0808188608083E0EA09
:100BC000F0E0808182688083E1EAF0E080818A61E0
:100BD000808389EF90E09093A7008093A60008950A
:100BE000FC018081823091F018F4813031F0089559
:100BF0008330A9F08430E1F00895E8E0F1E08081ED
:100C00008064808380818F7780830895E8E0F1E0BD
:100C100080818860808380818B7F80830895E8E075
:100C2000F1E080818061808380818F7D8083089561
:100C3000E8E0F1E080818260808380818E7F808324
:100C40000895FC018081823091F018F4813031F0F8
:100C500008958330A9F08430E1F00895E8E0F1E0F0
:100C600080818F7B80838081806880830895E8E025
:100C7000F1E08081877F8083808184608083089514
:100C8000E8E0F1E080818F7E8083808180628083D4
:100C90000895E8E0F1E080818D7F8083808181602C
:100CA00080830895FC0180818230B1F018F4813096
:100CB00031F008958330E9F0843041F10895E8E09F
:100CC000F1E08081806480838081806880831092DD
:100CD0002D0110922C010895E8E0F1E080818860F8
:100CE0008083808184608083109229011092280182
:100CF0000895E8E0F1E080818061808380818062F6
:100D0000808310922B0110922A010895E8E0F1E00F
:100D10008081826080838081816080831092A900BD
:100D20001092A80008950F931F93CF93DF938C0127
:100D3000EB011C161D060CF453DFC93FD10544F42A
:100D4000DD2344F4D195C195D109C8017ADF02C0F1
:100D5000C9EFD0E0F8018081823071F018F4813061
:100D600031F018C0833069F0843081F013C0D09323
:100D70002D01C0932C010EC0D0932901C0932801EE
:100D800009C0D0932B01C0932A0104C0D093A900BD
:100D9000C093A800DF91CF911F910F9108951F92EA
:100DA0000F920FB60F9211248F938091900283308F
:100DB00021F0809190028F5F01C080E080939002CB
:100DC00080919002833019F481E080938F028F919B
:100DD0000F900FBE0F901F90189510929202E3E9AA
:100DE000F2E010821182128213821092D50089E102
:100DF0008093D40088E98093D10086E08093D2006C
:100E000008951F920F920FB60F9211240BB60F92F6
:100E10008F93EF93FF93E6ECF0E0808180939A024A
:100E20001082FF91EF918F910F900BBE0F900FBE2C
:100E30000F901F9018951F920F920FB60F921124CA
:100E40008F938091CE00809399028F910F900FBE67
:100E50000F901F9018951F920F920FB60F921124AA
:100E60000BB60F928F939F93EF93FF938091D600D1
:100E70008093970290919102992389F09091920228
:100E8000E92FF0E0ED56FD4F80839F5F943018F41A
:100E90009093920204C010929202109291028F37A6
:100EA00019F481E080939102FF91EF919F918F91CE
:100EB0000F900BBE0F900FBE0F901F9018951F92B2
:100EC0000F920FB60F9211240BB60F928F93EF93E0
:100ED000FF93E6E3F1E08081809398021082FF9116
:100EE000EF918F910F900BBE0F900FBE0F901F9040
:100EF00018955058BB27AA270ED0E5C0D6D030F0A1
:100F0000DBD020F031F49F3F11F41EF4CBC00EF47F
:100F1000E095E7FBC1C0E92FE7D080F3BA1762077D
:100F200073078407950718F071F49EF5FFC00EF45F
:100F3000E0950B2EBA2FA02D0B01B90190010C01E9
:100F4000CA01A0011124FF27591B99F0593F50F401
:100F5000503E68F11A16F040A22F232F342F442759
:100F6000585FF3CF469537952795A795F040539551
:100F7000C9F77EF41F16BA0B620B730B840BBAF021
:100F80009150A1F0FF0FBB1F661F771F881FC2F78C
:100F90000EC0BA0F621F731F841F48F487957795A0
:100FA0006795B795F7959E3F08F0B3CF9395880F57
:100FB00008F09927EE0F97958795089504D06894C7
:100FC000B111B5C0089598D088F09F5790F0B92F0F
:100FD0009927B751A0F0D1F0660F771F881F991F8E
:100FE0001AF0BA95C9F712C0B13081F09FD0B1E0C4
:100FF00008959CC0672F782F8827B85F39F0B93FD4
:10100000CCF3869577956795B395D9F73EF490958F
:101010008095709561957F4F8F4F9F4F0895E8940D
:1010200009C097FB3EF490958095709561957F4F30
:101030008F4F9F4F9923A9F0F92F96E9BB279395DE
:10104000F695879577956795B795F111F8CFFAF4EE
:10105000BB0F11F460FF1BC06F5F7F4F8F4F9F4F1F
:1010600016C0882311F096E911C0772321F09EE87D
:10107000872F762F05C0662371F096E8862F70E0E3
:1010800060E02AF09A95660F771F881FDAF7880FBD
:101090009695879597F9089597F99F6780E870E08E
:1010A00060E008959FEF80EC089500240A941616DE
:1010B000170618060906089500240A941216130646
:1010C000140605060895092E0394000C11F48823D4
:1010D00052F0BB0F40F4BF2B11F460FF04C06F5FF0
:1010E0007F4F8F4F9F4F089557FD9058440F551FC6
:1010F00059F05F3F71F04795880F97FB991F61F09A
:101100009F3F79F087950895121613061406551F10
:10111000F2CF4695F1DF08C0161617061806991F7C
:10112000F1CF86957105610508940895E894BB2771
:1011300066277727CB0197F908950BD0C4CFB5DF89
:1011400028F0BADF18F0952309F0A6CFABCF112411
:10115000EECFCADFA0F3959FD1F3950F50E0551F56
:10116000629FF001729FBB27F00DB11D639FAA27FC
:10117000F00DB11DAA1F649F6627B00DA11D661F4B
:10118000829F2227B00DA11D621F739FB00DA11D6C
:10119000621F839FA00D611D221F749F3327A00D26
:1011A000611D231F849F600D211D822F762F6A2FC2
:1011B00011249F5750408AF0E1F088234AF0EE0F47
:1011C000FF1FBB1F661F771F881F91505040A9F754
:1011D0009E3F510570F060CFAACF5F3FECF3983E81
:1011E000DCF3869577956795B795F795E7959F5FBB
:1011F000C1F7FE2B880F911D9695879597F9089555
:10120000EE0FFF1F881F8BBF0790F691E02D1994FA
:04121000F894FFCF80
:021214000100D7
:00000001FF
